:060000000A128A110E280D
:10000800FE00030EF6000A08F7007F08F8000A123F
:100018008A11EF280A128A11112883133430FD003F
:100028000230FE000930FF00203084000A128A11D5
:1000380021220A128A110A128A1130220A128A11FE
:10004800FB000A128A1131220A128A11FC00F901F6
:10005800FA0183010A128A11F32983120313B901E1
:10006800B51F372838283F28B409B509B40A031939
:10007800B50A0130B900B71F422843284A28B609F3
:10008800B709B60A0319B70A0130B906BA01BB01A4
:100098003408350403195128522887280130B8003C
:1000A8005E2801300310B40DB50DFF3E031D562820
:1000B8000130B807B51F61286228552801300310A0
:1000C800BA0DBB0DFF3E031D632835083702031D1B
:1000D8006F2834083602031C722873287A283408DB
:1000E800B6023508031CB703B7023A1401300310EF
:1000F800B50CB40CFF3E031D7B280130B802031D6C
:10010800862887286228390803198B288C28912883
:10011800BA09BB09BA0A0319BB0A3B08B5003A0871
:10012800B400080083120313B901B71F9C289D2847
:10013800A428B609B709B60A0319B70A0130B900E5
:10014800B51FA728A828AD28B409B509B40A03190A
:10015800B50A340835040319B228B328E028013059
:10016800B800BF2801300310B40DB50DFF3E031DC4
:10017800B7280130B807B51FC228C328B6283508E4
:100188003702031DC92834083602031CCC28CD28A1
:10019800D3283408B6023508031CB703B702013068
:1001A8000310B50CB40CFF3E031DD4280130B8026F
:1001B800031DDF28E028C32839080319E428E528A7
:1001C800EA28B609B709B60A0319B70A3708B50005
:1001D8003608B40008000B1DF228F3283E290B113D
:1001E800EC308312031381000618FB28FC28FD2835
:1001F8008614861C002901293E297A08803AFF00C6
:10020800BA307F02031D0A299830790203180D2994
:100218000E293929831203138614E830F0000330BD
:10022800F1007A08F3007908F2000A128A114721CE
:100238000A128A1170087104031D232924293229FE
:10024800FF30FB070318FC0AFF30FC07FC1F2D29B1
:100258002E2932290F30FB000030FC000130F9074D
:100268000318FA0A0030FA073E29F901FA01831245
:10027800031386107808FF0077088A00760E83003B
:10028800FE0E7E0E0900F501F31F4B294C29532958
:10029800F209F309F20A0319F30A0130F500F11F14
:1002A800562957295C29F009F109F00A0319F10ABE
:1002B800700871040319612962298F290130F4003B
:1002C8006E2901300310F00DF10DFF3E031D662964
:1002D8000130F407F11F7129722965297108730229
:1002E800031D782970087202031C7B297C29822946
:1002F8007008F2027108031CF303F30201300310C3
:10030800F10CF00CFF3E031D83290130F402031D9C
:100318008E298F29722975080319932994299929F7
:10032800F209F309F20A0319F30A7308F1007208D3
:10033800F00008000A3083120313B4000030B5003F
:100348003D08B7003C08B6000A128A1131200A128B
:100358008A11831203133508C1003408C0000A301B
:10036800B4000030B5003D08B7003C08B6000A12DA
:100378008A1196200A128A11831203133508C300C2
:100388003408C200061586114208BE003E07203E0A
:100398008400831300088800413083120313BF00D0
:1003A800ED30BE00BE0BD629BF0BD629DB29831240
:1003B8000313061186154008BE003E07203E840040
:1003C800831300088800413083120313BF00ED3007
:1003D800BE00BE0BED29BF0BED29F22908008316DC
:1003E8000313880106148611061186100F30831234
:1003F8000313BC000030BD000A128A119E210A12A4
:100408008A11FA290A128A110E28C0340034F934E4
:100418000034A4340034B0340034993400349234B5
:10042800003482340034F83400348034003490349A
:1004380000347E088A007F0882000A128A111D2271
:100448000A128A118000840A04087D060319003400
:0C045800FF0A0319FE0A212A0F340034A9
:02400E007A3FF7
:00000001FF
