:060000000A128A11FC2F18
:100F3C000B1DA12FA22F9E2F0B113B3083120313DD
:100F4C00810008008316031381128111011481148E
:100F5C0001153B3083120313810008000A128A1119
:100F6C00A8270A128A118316031306100130831264
:100F7C00031386060030F3000030F2000030F1005D
:100F8C000130F0000A128A11D1270A128A11BC2FE3
:100F9C000A128A110028F32F0A128A119E270A12AC
:100FAC008A110130F4000030F5000030F6000030FA
:100FBC00F7007408F0027508031C750FE62FE72F75
:100FCC00F1027608031C760FEC2FED2FF202770856
:100FDC00031C770FF22FF32FF302730872047104C2
:100FEC007004031DFA2FFB2FD22F080083010A1265
:040FFC008A11B42F73
:02400E003A3F37
:00000001FF
