:060000000A128A110C280F
:10000800FE00030EF0000A08F1000A128A114928BE
:100018000A128A110F28F50183010A128A1114287D
:10002800013083160313860087018B170B160117FF
:100038007508031D20282128252883120313071477
:100048001C288312031307101A30F4005E30F300E3
:100058006E30F200F20B2E28F30B2E28F40B2E280C
:1000680000008312031307141A30F4005E30F30003
:100078006E30F200F20B3E28F30B3E28F40B3E28BC
:1000880000001C280A128A110C288B1C4C284D28A9
:1000980056288B1075080319522854280130552802
:1000A8000030F50071088A00700E8300FE0E7E0E87
:0200B80009003D
:02400E003B3F36
:00000001FF
