:060000000A128A110C280F
:10000800FE00030EF0000A08F1000A128A112928DE
:100018000A128A110F2883010A128A1139288312B9
:1000280003131214921492151216921612178B17A4
:100038000B17831603138C148312031312159101E3
:1000480013308316031392000800831203138C1CC9
:100058002E282F2832288C100130860671088A0035
:10006800700E8300FE0E7E0E090083160313061021
:100078008312031306100A128A1113200A128A1116
:0800880044280A128A110C2819
:02400E003A3F37
:00000001FF
