:100000000A128A11FC2FF800F401F5017008F200C1
:10001000F3017208F6007308F700781C1028112805
:1000200017287608F4070318F50A7708F507013052
:100030000310F60DF70DFF3E031D18280310F80CF2
:100040007808031D242825280D287508F100740858
:10005000F0000800031083120313650D660DEC0019
:100060006C08031D342835283E280030E600003097
:10007000E5000030E4000030E3009F286308E7005B
:100080006408E8006508E9006608EA001F3003100C
:10009000EA0CE90CE80CE70CFF3E031D4728670853
:1000A000EB00E517FF30E305FF30E405FF30E50521
:1000B0000030E6059630EC02EC1F5F2860287828B7
:1000C0006C08803A973E0318662867286828352808
:1000D00001300310E60CE50CE40CE30CFF3E031DBD
:1000E00069280130EC07031D7628772868288F28B7
:1000F00020306C02031C7D287E288A283528013098
:10010000E7000310E30DE40DE50DE60DE70B812894
:100110000130EC026C08031D8E288F287F286B08A5
:100120000319932894289F28E309E409E509E609BF
:10013000E30A0319E40A0319E50A0319E60A0800A9
:10014000831203133C08C6008030C6053C08BD007E
:100150003D07CD00BB1FAD28AE28AF284D144D087C
:100160000319B328B428C4284D0A031DB828B92898
:10017000C1280030BC000030BB000030BA000030A5
:10018000B900BB17BC01CC280030BC000030BB005C
:100190000030BA000030B90038088039C606380887
:1001A000BD003D07CE00B71FD628D728D8284E144B
:1001B0004E080319DC28DD28ED284E0A031DE1282E
:1001C000E228EA280030B8000030B7000030B6005E
:1001D0000030B500B717B801F5280030B80000307E
:1001E000B7000030B6000030B500380837043604D8
:1001F0003504031DFC28FD2814290030BC00003004
:10020000BB000030BA000030B9008030BB047F3042
:10021000BC044608BC043C08B8003B08B7003A08D8
:10022000B6003908B500692A4D08031D1829192997
:1002300022290030B8000030B7000030B60000308E
:10024000B500692A4D08BD00BE013E08C0004E0839
:100250003D02BF00031CC0033F087F3EC7004008AB
:100260000318013E003EC8003C08C5003B08C4001E
:100270003A08C3003908C2000030BC000030BB009F
:100280000030BA000030B9000030CC000030CB00A4
:100290000030CA000030C900CE0196294E0803196B
:1002A0005229532973290130BD000310C20DC30D1B
:1002B000C40DC50DBD0B55290130BD000310B90D8E
:1002C000BA0DBB0DBC0DBD0B5E29CC1F6829692979
:1002D0006A2939140130BD000310C90DCA0DCB0DB8
:1002E000CC0DBD0B6C2938084502031D8129370848
:1002F0004402031D812936084302031D8129350864
:100300004202031C8429852994294C173508C2020E
:100310003608031C360FC3023708031C370FC4020C
:100320003808031C380FC5020130CE071A304E02C0
:10033000031C9B299C294E2945084404430442047C
:100340000319A329A429C3294914C3290130BD00D5
:100350000310B90DBA0DBB0DBC0DBD0BA829CC1FE8
:10036000B229B329B42939140130BD000310C90DD5
:10037000CA0DCB0DCC0DBD0BB629FF30C707031836
:10038000C80AFF30C807BB1FC629C729A629CE0146
:10039000CC1FCB29CC29E829FF304905BD00FF300F
:1003A0004A05BE00FF304B05BF007F304C05C00042
:1003B00040083F043E043D040319DF29E029E329F6
:1003C0000130CE00E829391CE629E729E829E0298F
:1003D0004E080319EC29ED291E2A0130B907003017
:1003E00003180130BA07003003180130BB07003092
:1003F00003180130BC073C1CFE29FF291E2A3908BE
:10040000BD003A08BE003B08BF003C08C0000130F8
:10041000C100400DC00CBF0CBE0CBD0CC10B092AA5
:100420004008BC003F08BB003E08BA003D08B900C8
:100430000130C7070318C80A0030C8074808803AC7
:10044000FF0080307F02031D272AFF304702031C74
:100450002A2A2B2A392AFF3083120313C7000030BF
:10046000C8000030BC000030BB000030BA000030D3
:10047000B900831203134808803AFF0080307F02DE
:10048000031D442A013047020318472A482A552AE7
:1004900083120313C701C8010030BC000030BB0049
:1004A0000030BA000030B900C601831203134708B8
:1004B000CD004D1C5C2A5D2A5F2ABB17612A7F3064
:1004C000BB054D08BD0003103D0CBC004608BC0434
:1004D0000B290800831203135208DF008030DF0568
:1004E0005208D7005707E100D11F772A782A792AC6
:1004F0006114610803197D2A7E2A8E2A610A031D70
:10050000822A832A8B2A0030D2000030D1000030AA
:10051000D0000030CF00D117D201962A0030D2008F
:100520000030D1000030D0000030CF005608E0008D
:100530008030E00560085F0603199F2AA02AA12ADF
:100540005F175608D7005707E000D51FA82AA92A29
:10055000AA2A601460080319AE2AAF2ABF2A600ACB
:10056000031DB32AB42ABC2A0030D6000030D500BF
:100570000030D4000030D300D517D601C72A003090
:10058000D6000030D5000030D4000030D300610820
:1005900060020318CC2ACD2AF12A5F1FD02AD12A63
:1005A000D32A8030DF066108E2006008E1006208BB
:1005B000E0004F08E2005308CF006208D300500863
:1005C000E2005408D0006208D4005108E200550847
:1005D000D1006208D5005208E2005608D200620835
:1005E000D600E2016008D700D8015808DA00610897
:1005F0005702D900031CDA035A08803AFF00803002
:100600007F02031D052B1A305902031C082B092BEE
:100610003E2B831203135208510450044F04031D50
:10062000122B142B0130152B0030E2000030D200C9
:100630000030D1000030D0000030CF006008E10071
:10064000462B621C242B252B2C2B6208D700031071
:10065000570C0138E2002E2B0310E20C4F1C312BFB
:10066000322B332BE2170130D700520DD20CD10CB4
:10067000D00CCF0CD70B352B0130E10783120313BD
:1006800060086102031C452B462B212B5F1B492B65
:100690004A2B912B6108031D4E2B4F2B582B0030FA
:1006A000D2000030D1000030D0000030CF00B92C93
:1006B0005308CF07540803110318013E0319612B97
:1006C000D007550803110318013E0319682BD10701
:1006D000560803110318013E03196F2BD207521C51
:1006E000722B732B452C621C762B772B7E2B62088A
:1006F000D7000310570C0138E200802B0310E20CE6
:100700004F1C832B842B852BE2170130D700520D11
:10071000D20CD10CD00CCF0CD70B872B0130E107BA
:10072000452C5208803AFF005608803A7F02031D8C
:10073000A32B55085102031DA32B54085002031D7F
:10074000A32B53084F020318A62BA72BFE2BFF3019
:10075000D700FF30D800FF30D900FF30DA0053084F
:10076000DB005408DC005508DD005608DE004F08A9
:10077000DB025008031C500FBE2BBF2BDC025108BC
:10078000031C510FC42BC52BDD025208031C520F52
:10079000CA2BCB2BDE025B08D7075C0803185C0F63
:1007A000D22BD32BD8075D0803185D0FD82BD92B7C
:1007B000D9075E0803185E0ADA075A08D2005908FA
:1007C000D1005808D0005708CF008030DF06620300
:1007D000FF3AE2006208031DEE2BEF2B0C2C0130D8
:1007E000CF07003003180130D00700300318013064
:1007F000D107003003180130D2070C2C5308CF0268
:100800005408031C540FD0025508031C550FD10285
:100810005608031C560FD2025208510450044F04CC
:10082000031D132C142C412C6208031D182C192CA9
:10083000412C0030D2000030D1000030D000003018
:10084000CF00B92C0130D7000310CF0DD00DD10D42
:10085000D20DD70B242CE21F2E2C2F2C302C4F1412
:10086000621C332C342C382C0314620DE2003A2C19
:100870000310E20D610803193E2C3F2C412C01307E
:10088000E102D11F442C452C222CE001E21F492C0F
:100890004A2C582C62087F3903194F2C502C532CAA
:1008A0000130E000582C4F1C562C572C582C502C43
:1008B000600803195C2C5D2C8F2C0130CF070030B1
:1008C00003180130D007003003180130D107003081
:1008D00003180130D207521C6E2C6F2C8F2C4F083E
:1008E000D7005008D8005108D9005208DA0001306A
:1008F000DB005A0DDA0CD90CD80CD70CDB0B792C99
:100900005A08D2005908D1005808D0005708CF0023
:10091000610A03198C2C8D2C8F2C0130E107610AA0
:100920000319932C942C992C6108031D982C992C55
:10093000A72C0030D2000030D1000030D0000030B1
:10094000CF006108031DA52CA62CA72CDF01611C7C
:10095000AA2CAB2CAD2CD117AF2C7F30D105610860
:10096000D7000310570CD200DF1FB72CB82CB92CBE
:10097000D2170800831203132308A8008030A805AB
:100980002308F9007907AE00A21FC72CC82CC92C78
:100990002E142E080319CD2CCE2CDD2C2E0A031D6F
:1009A000D22CD32CDB2C0030A3000030A20000306E
:1009B000A1000030A000A217E52C0030A3000030F9
:1009C000A2000030A1000030A00027088039A8064E
:1009D0002708F9007907AD00A61FEF2CF02CF12CA9
:1009E0002D142D080319F52CF62C052D2D0A031DA9
:1009F000FA2CFB2C032D0030A7000030A60000309D
:100A0000A5000030A400A6170D2D0030A70000306F
:100A1000A6000030A5000030A4002D080319112DF8
:100A2000122D172D2E08031D162D172D202D0030E9
:100A3000A3000030A2000030A1000030A000FB2F76
:100A40002008F00026080A128A1103200A128A11CF
:100A5000710883120313B4007008B3003308F9005F
:100A6000FA01FB01FC017C08AC007B08AB007A08B2
:100A7000AA007908A9003408F900FA01FB01FC0179
:100A80007C08B2007B08B1007A08B0007908AF009A
:100A90002108F00025080A128A1103200A128A117F
:100AA000710883120313B4007008B3003308F9000F
:100AB000FA01FB01FC017908A9077A080311031860
:100AC000013E0319642DAA077B0803110318013E98
:100AD00003196B2DAB077C0803110318013E0319A2
:100AE000722DAC073408F900FA01FB01FC0179080A
:100AF000AF077A0803110318013E0319802DB007D0
:100B00007B0803110318013E0319872DB1077C08E8
:100B100003110318013E03198E2DB2072208F000BD
:100B200024080A128A1103200A128A1171088312FA
:100B30000313B4007008B3003308F900FA01FB0195
:100B4000FC017908A9077A0803110318013E03196B
:100B5000AA2DAA077B0803110318013E0319B12D22
:100B6000AB077C0803110318013E0319B82DAC072D
:100B70003408F900FA01FB01FC017908AF077A0893
:100B800003110318013E0319C62DB0077B0803119A
:100B90000318013E0319CD2DB1077C08031103187A
:100BA000013E0319D42DB2070830F9000310A90D36
:100BB000AA0DAB0DAC0DF90BD62D2108F0002408C1
:100BC0000A128A1103200A128A1171088312031370
:100BD000B4007008B3003308F9003408FA00FB01D0
:100BE000FC017908A9077A0803110318013E0319CB
:100BF000FA2DAA077B0803110318013E0319012EE1
:100C0000AB077C0803110318013E0319082EAC073B
:100C10002008F00025080A128A1103200A128A11FE
:100C2000710883120313B4007008B3003308F9008D
:100C30003408FA00FB01FC017908A9077A080311BE
:100C40000318013E0319252EAA077B080311031878
:100C5000013E03192C2EAB077C0803110318013E3B
:100C60000319332EAC070830F9000310A90DAA0DA3
:100C7000AB0DAC0DF90B352E2008F00024080A123C
:100C80008A1103200A128A11710883120313B40017
:100C90007008B3003308F9003408FA00FB01FC01C6
:100CA0007908A9077A0803110318013E0319592E80
:100CB000AA077B0803110318013E0319602EAB0736
:100CC0007C0803110318013E0319672EAC072108A5
:100CD000F00026080A128A1103200A128A117108EC
:100CE00083120313B4007008B3003308F90034080A
:100CF000FA00FB01FC017908AF077A080311031819
:100D0000013E0319842EB0077B0803110318013E2E
:100D100003198B2EB1077C0803110318013E031938
:100D2000922EB2072208F00025080A128A11032029
:100D30000A128A11710883120313B4007008B300F9
:100D40003308F9003408FA00FB01FC017908AF0709
:100D50007A0803110318013E0319AF2EB0077B0870
:100D600003110318013E0319B62EB1077C080311C5
:100D70000318013E0319BD2EB2072208F000260811
:100D80000A128A1103200A128A11710883120313AE
:100D9000B4007008B3003308F9003408FA00FB010E
:100DA000FC0108300310F90DFA0DFB0DFC0DFF3EA0
:100DB000031DD22E7908AF077A0803110318013EEC
:100DC0000319E32EB0077B0803110318013E031932
:100DD000EA2EB1077C0803110318013E0319F12E16
:100DE000B2072908F9002A08FA002B08FB002C0892
:100DF000FC0018300310FC0CFB0CFA0CF90CFF3E45
:100E0000031DFA2E7908AF077A0803110318013E73
:100E100003190B2FB0077B0803110318013E0319B8
:100E2000122FB1077C0803110318013E0319192F73
:100E3000B2070830F9000310A90DAA0DAB0DAC0DD7
:100E4000F90B1B2F2E082D07F900FA01FA0D79086E
:100E5000823EB3007A080318013EFF3EB4004D2FD6
:100E60000130F9000310AF0DB00DB10DB20DF90B4B
:100E7000322FAC1F3C2F3D2F3E2F2F140130F90095
:100E80000310A90DAA0DAB0DAC0DF90B402FFF30CF
:100E9000B3070318B40AFF30B407B11F502F512F06
:100EA000302FAD01AC1F552F562F722FFF30290563
:100EB000F900FF302A05FA00FF302B05FB007F30D8
:100EC0002C05FC007C087B047A0479040319692F43
:100ED0006A2F6D2F0130AD00722F2F1C702F712FD4
:100EE000722F6A2F2D080319762F772FA82F013024
:100EF000AF07003003180130B0070030031801308D
:100F0000B107003003180130B207321C882F892F37
:100F1000A82F2F08F9003008FA003108FB0032082A
:100F2000FC000130FD007C0DFC0CFB0CFA0CF90CF4
:100F3000FD0B932F7C08B2007B08B1007A08B0004B
:100F40007908AF000130B3070318B40A0030B407C2
:100F50003408803AFF0080307F02031DB12FFF303C
:100F60003302031CB42FB52FC02F7F30831203131D
:100F7000B2008030B1000030B0000030AF00F12F7F
:100F8000831203133408803AFF0080307F02031D70
:100F9000CB2F013033020318CE2FCF2FDB2F0030A1
:100FA00083120313B2000030B1000030B0000030F3
:100FB000AF00A801F12F831203133308AE00FF30F6
:100FC000AF05FF30B0057F30B1050030B2052E1CF3
:100FD000EA2FEB2FEC2FB1172E08F9000310790C34
:100FE000B2002808B2043208A3003108A200300879
:100FF000A1002F08A000080083010A128A15572DAE
:101AAE00831603130711E83083120313ED0003307E
:101ABE00EE000A128A1528260A128A15553083124C
:101ACE000313ED000030EE000A128A15F1260A12F9
:101ADE008A15702D0A128A110028F8007808031949
:101AEE00792D7A2D8E2DF31F7D2D7E2D8E2D700945
:101AFE00FA007109FB007209FC007309FD00FA0A75
:101B0E000319FB0A0319FC0A0319FD0A962D730823
:101B1E00FD007208FC007108FB007008FA007308E3
:101B2E00720471047004031D9D2D9E2DA72D00308F
:101B3E00F3000030F2000030F1000030F000272EEC
:101B4E009630F900B52D0130F90701300310FD0C68
:101B5E00FC0CFB0CFA0CFF3E031DAD2DFE307D057B
:101B6E00031DBA2DBB2DAA2DD52D0130F90701303D
:101B7E00FA07003003180130FB070030031801305C
:101B8E00FC07003003180130FD0701300310FD0C77
:101B9E00FC0CFB0CFA0CFF3E031DCD2DFF307D051A
:101BAE00031DDA2DDB2DBC2DE72D0130F90201309E
:101BBE00F4000310FA0DFB0DFC0DFD0DF40BE02DE2
:101BCE00FC1BEA2DEB2DF12D023079020318F02DBE
:101BDE00F12DDC2D7918F42DF52DFD2DFF30FA05A4
:101BEE00FF30FB057F30FC05FF30FD050310F90CBF
:101BFE007908F400F501F601F70118300310F40D21
:101C0E00F50DF60DF70DFF3E031D052E7408FA04B3
:101C1E007508FB047608FC047708FD0478080319A0
:101C2E00192E1A2E1F2EF31F1D2E1E2E1F2EFD17C0
:101C3E007D08F3007C08F2007B08F1007A08F000C2
:101C4E000800033083120313920412151708F0399B
:101C5E000C3897006D08F0006E08F100F201F301E8
:101C6E0000300A128A1574250A128A157308831613
:101C7E000313B3007208B2007108B1007008B0000F
:101C8E00330883120313B80083160313320883122A
:101C9E000313B70083160313310883120313B60020
:101CAE0083160313300883120313B5003F30BC00B4
:101CBE008030BB000030BA000030B9000A128A1121
:101CCE00A0200A128A1583120313380883160313F1
:101CDE00AF0083120313370883160313AE0083126B
:101CEE000313360883160313AD008312031335084E
:101CFE0083160313AC002F0883120313A700831659
:101D0E0003132E0883120313A600831603132D0844
:101D1E0083120313A500831603132C0883120313D7
:101D2E00A4004A30A3007430A2002430A100003079
:101D3E00A0000A128A11BA240A128A1583120313FA
:101D4E002308BC002208BB002108BA002008B900F5
:101D5E004230B8008030B7000030B6000030B50019
:101D6E000A128A11A0200A128A1583120313380848
:101D7E00D6003708D5003608D4003508D300BF305A
:101D8E00D2008030D1000030D0000030CF000A12D7
:101D9E008A116A220A128A15831203135208E60068
:101DAE005108E5005008E4004F08E3000A128A11BA
:101DBE002A200A128A15831203136408831603134A
:101DCE00A10083120313630883160313A0002008D7
:101DDE0092000800423083120313B800C830B700D7
:101DEE000030B6000030B5006D08F0006E08F1004E
:101DFE00F201F30100300A128A1574250A128A15AF
:101E0E00730883120313BC007208BB007108BA007A
:101E1E007008B9000A128A11A0200A128A158312BC
:101E2E000313380883160313A50083120313370810
:101E3E0083160313A40083120313360883160313A9
:101E4E00A30083120313350883160313A2002F0871
:101E5E0083120313A300831603132E088312031396
:101E6E00A200831603132D0883120313A1008316F9
:101E7E0003132C0883120313A000831603132508E3
:101E8E0083120313A700831603132408831203136C
:101E9E00A60083160313230883120313A5008316CB
:101EAE000313220883120313A4000A128A11BA2400
:101EBE000A128A1583120313230883160313A9002B
:101ECE0083120313220883160313A800831203132D
:101EDE00210883160313A700831203132008831609
:101EEE000313A600290883120313A70083160313F6
:101EFE00280883120313A6008316031327088312E0
:101F0E000313A50083160313260883120313A400DC
:101F1E004A30A3007430A2002430A1000030A0008B
:101F2E000A128A11BA240A128A158312031323087D
:101F3E00BC002208BB002108BA002008B9004130BD
:101F4E00B8008030B7000030B6000030B5000A127D
:101F5E008A11A0200A128A15831203133808E6008C
:101F6E003708E5003608E4003508E3000A128A1146
:101F7E002A200A128A158312031364088316031388
:101F8E00AB0083120313630883160313AA002B08F6
:101F9E00A1002A08A000210DA10CA00C210DA10C5E
:101FAE00A00C2008831203139500831603132A082E
:101FBE000139A000A00EA00D83120313170883167B
:101FCE0003132006DF3920068312031397008316AE
:101FDE0003132A080239A000A00E83120313170858
:101FEE00831603132006EF3920068312031397007E
:021FFE000800D9
:02400E003A3F37
:00000001FF
